{
  "contractName": "CloudAudit",
  "abi": [
    {
      "inputs": [
        {
          "internalType": "address",
          "name": "",
          "type": "address"
        },
        {
          "internalType": "uint256",
          "name": "",
          "type": "uint256"
        }
      ],
      "name": "file_hashes_by_owner",
      "outputs": [
        {
          "internalType": "bytes32",
          "name": "",
          "type": "bytes32"
        }
      ],
      "stateMutability": "view",
      "type": "function",
      "constant": true
    },
    {
      "inputs": [
        {
          "internalType": "address",
          "name": "",
          "type": "address"
        }
      ],
      "name": "files_by_owner",
      "outputs": [
        {
          "internalType": "uint256",
          "name": "file_id_global",
          "type": "uint256"
        },
        {
          "internalType": "uint256",
          "name": "version_count",
          "type": "uint256"
        },
        {
          "internalType": "bool",
          "name": "reality",
          "type": "bool"
        }
      ],
      "stateMutability": "view",
      "type": "function",
      "constant": true
    },
    {
      "inputs": [
        {
          "internalType": "address",
          "name": "userAddress",
          "type": "address"
        }
      ],
      "name": "userExists",
      "outputs": [
        {
          "internalType": "bool",
          "name": "",
          "type": "bool"
        }
      ],
      "stateMutability": "view",
      "type": "function",
      "constant": true
    },
    {
      "inputs": [],
      "name": "initCloudForUser",
      "outputs": [
        {
          "internalType": "bool",
          "name": "success",
          "type": "bool"
        }
      ],
      "stateMutability": "nonpayable",
      "type": "function"
    },
    {
      "inputs": [
        {
          "internalType": "string[]",
          "name": "_file_blocks",
          "type": "string[]"
        }
      ],
      "name": "storeFileBlocks",
      "outputs": [
        {
          "internalType": "bool",
          "name": "",
          "type": "bool"
        }
      ],
      "stateMutability": "nonpayable",
      "type": "function"
    },
    {
      "inputs": [
        {
          "internalType": "string[]",
          "name": "_file_blocks",
          "type": "string[]"
        },
        {
          "internalType": "uint256",
          "name": "_version_no",
          "type": "uint256"
        }
      ],
      "name": "storeFileBlocksRenew",
      "outputs": [
        {
          "internalType": "bool",
          "name": "",
          "type": "bool"
        }
      ],
      "stateMutability": "nonpayable",
      "type": "function"
    },
    {
      "inputs": [
        {
          "internalType": "uint256",
          "name": "_version_no",
          "type": "uint256"
        }
      ],
      "name": "getFileVersionForOwner",
      "outputs": [
        {
          "internalType": "string[]",
          "name": "",
          "type": "string[]"
        }
      ],
      "stateMutability": "view",
      "type": "function",
      "constant": true
    },
    {
      "inputs": [
        {
          "internalType": "address",
          "name": "user_address",
          "type": "address"
        },
        {
          "internalType": "uint256",
          "name": "_version_no",
          "type": "uint256"
        }
      ],
      "name": "getFileVersionForOwnerRenew",
      "outputs": [
        {
          "internalType": "string[]",
          "name": "",
          "type": "string[]"
        }
      ],
      "stateMutability": "view",
      "type": "function",
      "constant": true
    },
    {
      "inputs": [
        {
          "internalType": "uint256",
          "name": "_block_idx",
          "type": "uint256"
        },
        {
          "internalType": "string",
          "name": "new_block",
          "type": "string"
        }
      ],
      "name": "updateBlockByIdx",
      "outputs": [
        {
          "internalType": "bool",
          "name": "",
          "type": "bool"
        }
      ],
      "stateMutability": "nonpayable",
      "type": "function"
    },
    {
      "inputs": [
        {
          "internalType": "uint256",
          "name": "_block_idx",
          "type": "uint256"
        },
        {
          "internalType": "string",
          "name": "new_block",
          "type": "string"
        },
        {
          "internalType": "uint256",
          "name": "_version_no",
          "type": "uint256"
        }
      ],
      "name": "updateBlockByIdxRenew",
      "outputs": [
        {
          "internalType": "bool",
          "name": "",
          "type": "bool"
        }
      ],
      "stateMutability": "nonpayable",
      "type": "function"
    },
    {
      "inputs": [
        {
          "internalType": "string[]",
          "name": "_file_blocks",
          "type": "string[]"
        }
      ],
      "name": "getFileHash",
      "outputs": [
        {
          "internalType": "bytes32",
          "name": "",
          "type": "bytes32"
        }
      ],
      "stateMutability": "pure",
      "type": "function",
      "constant": true
    },
    {
      "inputs": [
        {
          "internalType": "uint256",
          "name": "_version_no",
          "type": "uint256"
        }
      ],
      "name": "returnFileHash",
      "outputs": [
        {
          "internalType": "bytes32",
          "name": "",
          "type": "bytes32"
        }
      ],
      "stateMutability": "view",
      "type": "function",
      "constant": true
    },
    {
      "inputs": [
        {
          "internalType": "uint256",
          "name": "_version_no",
          "type": "uint256"
        }
      ],
      "name": "generateFileHash",
      "outputs": [
        {
          "internalType": "bool",
          "name": "",
          "type": "bool"
        }
      ],
      "stateMutability": "nonpayable",
      "type": "function"
    },
    {
      "inputs": [
        {
          "internalType": "address",
          "name": "_file_owner",
          "type": "address"
        },
        {
          "internalType": "uint256",
          "name": "_version_no",
          "type": "uint256"
        }
      ],
      "name": "compareFileHash",
      "outputs": [
        {
          "internalType": "bool",
          "name": "",
          "type": "bool"
        }
      ],
      "stateMutability": "view",
      "type": "function",
      "constant": true
    }
  ],
  "bytecode": "0x608060405234801561001057600080fd5b50612510806100206000396000f3fe608060405234801561001057600080fd5b50600436106100ea5760003560e01c806356ea578e1161008c578063b7b8bae011610066578063b7b8bae0146102bf578063c2fc3f71146102ef578063e6df8c501461031f578063f13fcbf01461034f576100ea565b806356ea578e1461022d57806383b9b6891461025d578063a8176b351461028d576100ea565b806333521d75116100c857806333521d751461016d5780633652f7f91461019d5780634fc94ca1146101cd578063500bb5b2146101fd576100ea565b80630684c28e146100ef5780630e666e491461011f5780631be066131461014f575b600080fd5b610109600480360381019061010491906119a4565b61037f565b6040516101169190611a1b565b60405180910390f35b61013960048036038101906101349190611a94565b610461565b6040516101469190611a1b565b60405180910390f35b6101576104b9565b6040516101649190611a1b565b60405180910390f35b61018760048036038101906101829190611ac1565b61057b565b6040516101949190611b07565b60405180910390f35b6101b760048036038101906101b29190611ac1565b6105eb565b6040516101c49190611a1b565b60405180910390f35b6101e760048036038101906101e29190611ac1565b61078a565b6040516101f49190611c63565b60405180910390f35b61021760048036038101906102129190611c85565b61091a565b6040516102249190611a1b565b60405180910390f35b61024760048036038101906102429190611cf4565b610ab4565b6040516102549190611a1b565b60405180910390f35b61027760048036038101906102729190611cf4565b610cb0565b6040516102849190611b07565b60405180910390f35b6102a760048036038101906102a29190611a94565b610ce1565b6040516102b693929190611d43565b60405180910390f35b6102d960048036038101906102d49190611d7a565b610d18565b6040516102e69190611b07565b60405180910390f35b61030960048036038101906103049190611dc3565b610d5b565b6040516103169190611a1b565b60405180910390f35b61033960048036038101906103349190611cf4565b6111c0565b6040516103469190611c63565b60405180910390f35b61036960048036038101906103649190611d7a565b6112f2565b6040516103769190611a1b565b60405180910390f35b60008033905061038e81610461565b61039757600080fd5b60005b8451811015610455576000808373ffffffffffffffffffffffffffffffffffffffff1673ffffffffffffffffffffffffffffffffffffffff168152602001908152602001600020600101600085815260200190815260200160002085828151811061040857610407611e1f565b5b6020026020010151908060018154018082558091505060019003906000526020600020016000909190919091509081610441919061205a565b50808061044d9061215b565b91505061039a565b50600191505092915050565b60008060008373ffffffffffffffffffffffffffffffffffffffff1673ffffffffffffffffffffffffffffffffffffffff16815260200190815260200160002060030160009054906101000a900460ff169050919050565b6000803390506104c881610461565b156104d257600080fd5b60008060008373ffffffffffffffffffffffffffffffffffffffff1673ffffffffffffffffffffffffffffffffffffffff1681526020019081526020016000206002018190555060016000808373ffffffffffffffffffffffffffffffffffffffff1673ffffffffffffffffffffffffffffffffffffffff16815260200190815260200160002060030160006101000a81548160ff021916908315150217905550600191505090565b6000803390506000600160008373ffffffffffffffffffffffffffffffffffffffff1673ffffffffffffffffffffffffffffffffffffffff16815260200190815260200160002084815481106105d4576105d3611e1f565b5b906000526020600020015490508092505050919050565b600080339050600061071d6000808473ffffffffffffffffffffffffffffffffffffffff1673ffffffffffffffffffffffffffffffffffffffff1681526020019081526020016000206001016000868152602001908152602001600020805480602002602001604051908101604052809291908181526020016000905b8282101561071457838290600052602060002001805461068790611e7d565b80601f01602080910402602001604051908101604052809291908181526020018280546106b390611e7d565b80156107005780601f106106d557610100808354040283529160200191610700565b820191906000526020600020905b8154815290600101906020018083116106e357829003601f168201915b505050505081526020019060010190610668565b50505050610d18565b905080600160008473ffffffffffffffffffffffffffffffffffffffff1673ffffffffffffffffffffffffffffffffffffffff168152602001908152602001600020858154811061077157610770611e1f565b5b9060005260206000200181905550600192505050919050565b6060600033905061079a81610461565b6107a357600080fd5b6000808273ffffffffffffffffffffffffffffffffffffffff1673ffffffffffffffffffffffffffffffffffffffff1681526020019081526020016000206002015483106107f057600080fd5b6000808273ffffffffffffffffffffffffffffffffffffffff1673ffffffffffffffffffffffffffffffffffffffff1681526020019081526020016000206001016000848152602001908152602001600020805480602002602001604051908101604052809291908181526020016000905b8282101561090e57838290600052602060002001805461088190611e7d565b80601f01602080910402602001604051908101604052809291908181526020018280546108ad90611e7d565b80156108fa5780601f106108cf576101008083540402835291602001916108fa565b820191906000526020600020905b8154815290600101906020018083116108dd57829003601f168201915b505050505081526020019060010190610862565b50505050915050919050565b60008033905061092981610461565b61093257600080fd5b6000839050856000808473ffffffffffffffffffffffffffffffffffffffff1673ffffffffffffffffffffffffffffffffffffffff1681526020019081526020016000206001016000838152602001908152602001600020805490501161099857600080fd5b600080600090505b6000808573ffffffffffffffffffffffffffffffffffffffff1673ffffffffffffffffffffffffffffffffffffffff168152602001908152602001600020600101600084815260200190815260200160002080549050811015610a1d57610a0884848361148b565b91508080610a159061215b565b9150506109a0565b50856000808573ffffffffffffffffffffffffffffffffffffffff1673ffffffffffffffffffffffffffffffffffffffff1681526020019081526020016000206001016000600185610a6f91906121a3565b81526020019081526020016000208881548110610a8f57610a8e611e1f565b5b906000526020600020019081610aa5919061205a565b50600193505050509392505050565b6000808390506000808273ffffffffffffffffffffffffffffffffffffffff1673ffffffffffffffffffffffffffffffffffffffff16815260200190815260200160002060020154831115610b0857600080fd5b6000610c346000808473ffffffffffffffffffffffffffffffffffffffff1673ffffffffffffffffffffffffffffffffffffffff1681526020019081526020016000206001016000868152602001908152602001600020805480602002602001604051908101604052809291908181526020016000905b82821015610c2b578382906000526020600020018054610b9e90611e7d565b80601f0160208091040260200160405190810160405280929190818152602001828054610bca90611e7d565b8015610c175780601f10610bec57610100808354040283529160200191610c17565b820191906000526020600020905b815481529060010190602001808311610bfa57829003601f168201915b505050505081526020019060010190610b7f565b50505050610d18565b905080600160008473ffffffffffffffffffffffffffffffffffffffff1673ffffffffffffffffffffffffffffffffffffffff1681526020019081526020016000208581548110610c8857610c87611e1f565b5b906000526020600020015403610ca357600192505050610caa565b6000925050505b92915050565b60016020528160005260406000208181548110610ccc57600080fd5b90600052602060002001600091509150505481565b60006020528060005260406000206000915090508060000154908060020154908060030160009054906101000a900460ff16905083565b600080610d248361158d565b9050600081604051602001610d399190612213565b6040516020818303038152906040528051906020012090508092505050919050565b600080339050610d6a81610461565b610d7357600080fd5b600060016000808473ffffffffffffffffffffffffffffffffffffffff1673ffffffffffffffffffffffffffffffffffffffff16815260200190815260200160002060020154610dc3919061222a565b90506000808373ffffffffffffffffffffffffffffffffffffffff1673ffffffffffffffffffffffffffffffffffffffff168152602001908152602001600020600201548110610e1257600080fd5b846000808473ffffffffffffffffffffffffffffffffffffffff1673ffffffffffffffffffffffffffffffffffffffff16815260200190815260200160002060010160008381526020019081526020016000208054905011610e7357600080fd5b6000808373ffffffffffffffffffffffffffffffffffffffff1673ffffffffffffffffffffffffffffffffffffffff16815260200190815260200160002060010160008281526020019081526020016000206000808473ffffffffffffffffffffffffffffffffffffffff1673ffffffffffffffffffffffffffffffffffffffff1681526020019081526020016000206001016000600184610f1591906121a3565b8152602001908152602001600020908054610f319291906115f7565b50836000808473ffffffffffffffffffffffffffffffffffffffff1673ffffffffffffffffffffffffffffffffffffffff1681526020019081526020016000206001016000600184610f8391906121a3565b81526020019081526020016000208681548110610fa357610fa2611e1f565b5b906000526020600020019081610fb9919061205a565b5060006110f26000808573ffffffffffffffffffffffffffffffffffffffff1673ffffffffffffffffffffffffffffffffffffffff168152602001908152602001600020600101600060018561100f91906121a3565b8152602001908152602001600020805480602002602001604051908101604052809291908181526020016000905b828210156110e957838290600052602060002001805461105c90611e7d565b80601f016020809104026020016040519081016040528092919081815260200182805461108890611e7d565b80156110d55780601f106110aa576101008083540402835291602001916110d5565b820191906000526020600020905b8154815290600101906020018083116110b857829003601f168201915b50505050508152602001906001019061103d565b50505050610d18565b9050600160008473ffffffffffffffffffffffffffffffffffffffff1673ffffffffffffffffffffffffffffffffffffffff16815260200190815260200160002081908060018154018082558091505060019003906000526020600020016000909190919091505560016000808573ffffffffffffffffffffffffffffffffffffffff1673ffffffffffffffffffffffffffffffffffffffff16815260200190815260200160002060020160008282546111ac91906121a3565b925050819055506001935050505092915050565b606060008390506000808273ffffffffffffffffffffffffffffffffffffffff1673ffffffffffffffffffffffffffffffffffffffff1681526020019081526020016000206001016000848152602001908152602001600020805480602002602001604051908101604052809291908181526020016000905b828210156112e557838290600052602060002001805461125890611e7d565b80601f016020809104026020016040519081016040528092919081815260200182805461128490611e7d565b80156112d15780601f106112a6576101008083540402835291602001916112d1565b820191906000526020600020905b8154815290600101906020018083116112b457829003601f168201915b505050505081526020019060010190611239565b5050505091505092915050565b60008033905061130181610461565b61130a57600080fd5b60008060008373ffffffffffffffffffffffffffffffffffffffff1673ffffffffffffffffffffffffffffffffffffffff168152602001908152602001600020600201549050836000808473ffffffffffffffffffffffffffffffffffffffff1673ffffffffffffffffffffffffffffffffffffffff168152602001908152602001600020600101600083815260200190815260200160002090805190602001906113b6929190611654565b5060006113c285610d18565b9050600160008473ffffffffffffffffffffffffffffffffffffffff1673ffffffffffffffffffffffffffffffffffffffff16815260200190815260200160002081908060018154018082558091505060019003906000526020600020016000909190919091505560018261143791906121a3565b9150816000808573ffffffffffffffffffffffffffffffffffffffff1673ffffffffffffffffffffffffffffffffffffffff1681526020019081526020016000206002018190555060019350505050919050565b60008060008573ffffffffffffffffffffffffffffffffffffffff1673ffffffffffffffffffffffffffffffffffffffff168152602001908152602001600020600101600084815260200190815260200160002082815481106114f1576114f0611e1f565b5b906000526020600020016000808673ffffffffffffffffffffffffffffffffffffffff1673ffffffffffffffffffffffffffffffffffffffff168152602001908152602001600020600101600060018661154b91906121a3565b8152602001908152602001600020838154811061156b5761156a611e1f565b5b9060005260206000200190816115819190612289565b50600190509392505050565b60608060005b83518110156115ed57818482815181106115b0576115af611e1f565b5b60200260200101516040516020016115c99291906123b8565b604051602081830303815290604052915080806115e59061215b565b915050611593565b5080915050919050565b8280548282559060005260206000209081019282156116435760005260206000209182015b82811115611642578282908161163291906123f2565b509160010191906001019061161c565b5b50905061165091906116ad565b5090565b82805482825590600052602060002090810192821561169c579160200282015b8281111561169b57825182908161168b919061205a565b5091602001919060010190611674565b5b5090506116a991906116ad565b5090565b5b808211156116cd57600081816116c491906116d1565b506001016116ae565b5090565b5080546116dd90611e7d565b6000825580601f106116ef575061170e565b601f01602090049060005260206000209081019061170d9190611711565b5b50565b5b8082111561172a576000816000905550600101611712565b5090565b6000604051905090565b600080fd5b600080fd5b600080fd5b6000601f19601f8301169050919050565b7f4e487b7100000000000000000000000000000000000000000000000000000000600052604160045260246000fd5b61179082611747565b810181811067ffffffffffffffff821117156117af576117ae611758565b5b80604052505050565b60006117c261172e565b90506117ce8282611787565b919050565b600067ffffffffffffffff8211156117ee576117ed611758565b5b602082029050602081019050919050565b600080fd5b600080fd5b600067ffffffffffffffff82111561182457611823611758565b5b61182d82611747565b9050602081019050919050565b82818337600083830152505050565b600061185c61185784611809565b6117b8565b90508281526020810184848401111561187857611877611804565b5b61188384828561183a565b509392505050565b600082601f8301126118a05761189f611742565b5b81356118b0848260208601611849565b91505092915050565b60006118cc6118c7846117d3565b6117b8565b905080838252602082019050602084028301858111156118ef576118ee6117ff565b5b835b8181101561193657803567ffffffffffffffff81111561191457611913611742565b5b808601611921898261188b565b855260208501945050506020810190506118f1565b5050509392505050565b600082601f83011261195557611954611742565b5b81356119658482602086016118b9565b91505092915050565b6000819050919050565b6119818161196e565b811461198c57600080fd5b50565b60008135905061199e81611978565b92915050565b600080604083850312156119bb576119ba611738565b5b600083013567ffffffffffffffff8111156119d9576119d861173d565b5b6119e585828601611940565b92505060206119f68582860161198f565b9150509250929050565b60008115159050919050565b611a1581611a00565b82525050565b6000602082019050611a306000830184611a0c565b92915050565b600073ffffffffffffffffffffffffffffffffffffffff82169050919050565b6000611a6182611a36565b9050919050565b611a7181611a56565b8114611a7c57600080fd5b50565b600081359050611a8e81611a68565b92915050565b600060208284031215611aaa57611aa9611738565b5b6000611ab884828501611a7f565b91505092915050565b600060208284031215611ad757611ad6611738565b5b6000611ae58482850161198f565b91505092915050565b6000819050919050565b611b0181611aee565b82525050565b6000602082019050611b1c6000830184611af8565b92915050565b600081519050919050565b600082825260208201905092915050565b6000819050602082019050919050565b600081519050919050565b600082825260208201905092915050565b60005b83811015611b88578082015181840152602081019050611b6d565b60008484015250505050565b6000611b9f82611b4e565b611ba98185611b59565b9350611bb9818560208601611b6a565b611bc281611747565b840191505092915050565b6000611bd98383611b94565b905092915050565b6000602082019050919050565b6000611bf982611b22565b611c038185611b2d565b935083602082028501611c1585611b3e565b8060005b85811015611c515784840389528151611c328582611bcd565b9450611c3d83611be1565b925060208a01995050600181019050611c19565b50829750879550505050505092915050565b60006020820190508181036000830152611c7d8184611bee565b905092915050565b600080600060608486031215611c9e57611c9d611738565b5b6000611cac8682870161198f565b935050602084013567ffffffffffffffff811115611ccd57611ccc61173d565b5b611cd98682870161188b565b9250506040611cea8682870161198f565b9150509250925092565b60008060408385031215611d0b57611d0a611738565b5b6000611d1985828601611a7f565b9250506020611d2a8582860161198f565b9150509250929050565b611d3d8161196e565b82525050565b6000606082019050611d586000830186611d34565b611d656020830185611d34565b611d726040830184611a0c565b949350505050565b600060208284031215611d9057611d8f611738565b5b600082013567ffffffffffffffff811115611dae57611dad61173d565b5b611dba84828501611940565b91505092915050565b60008060408385031215611dda57611dd9611738565b5b6000611de88582860161198f565b925050602083013567ffffffffffffffff811115611e0957611e0861173d565b5b611e158582860161188b565b9150509250929050565b7f4e487b7100000000000000000000000000000000000000000000000000000000600052603260045260246000fd5b7f4e487b7100000000000000000000000000000000000000000000000000000000600052602260045260246000fd5b60006002820490506001821680611e9557607f821691505b602082108103611ea857611ea7611e4e565b5b50919050565b60008190508160005260206000209050919050565b60006020601f8301049050919050565b600082821b905092915050565b600060088302611f107fffffffffffffffffffffffffffffffffffffffffffffffffffffffffffffffff82611ed3565b611f1a8683611ed3565b95508019841693508086168417925050509392505050565b6000819050919050565b6000611f57611f52611f4d8461196e565b611f32565b61196e565b9050919050565b6000819050919050565b611f7183611f3c565b611f85611f7d82611f5e565b848454611ee0565b825550505050565b600090565b611f9a611f8d565b611fa5818484611f68565b505050565b5b81811015611fc957611fbe600082611f92565b600181019050611fab565b5050565b601f82111561200e57611fdf81611eae565b611fe884611ec3565b81016020851015611ff7578190505b61200b61200385611ec3565b830182611faa565b50505b505050565b600082821c905092915050565b600061203160001984600802612013565b1980831691505092915050565b600061204a8383612020565b9150826002028217905092915050565b61206382611b4e565b67ffffffffffffffff81111561207c5761207b611758565b5b6120868254611e7d565b612091828285611fcd565b600060209050601f8311600181146120c457600084156120b2578287015190505b6120bc858261203e565b865550612124565b601f1984166120d286611eae565b60005b828110156120fa578489015182556001820191506020850194506020810190506120d5565b868310156121175784890151612113601f891682612020565b8355505b6001600288020188555050505b505050505050565b7f4e487b7100000000000000000000000000000000000000000000000000000000600052601160045260246000fd5b60006121668261196e565b91507fffffffffffffffffffffffffffffffffffffffffffffffffffffffffffffffff82036121985761219761212c565b5b600182019050919050565b60006121ae8261196e565b91506121b98361196e565b92508282019050808211156121d1576121d061212c565b5b92915050565b600081905092915050565b60006121ed82611b4e565b6121f781856121d7565b9350612207818560208601611b6a565b80840191505092915050565b600061221f82846121e2565b915081905092915050565b60006122358261196e565b91506122408361196e565b92508282039050818111156122585761225761212c565b5b92915050565b60008154905061226d81611e7d565b9050919050565b60008190508160005260206000209050919050565b81810361229757505061236f565b6122a08261225e565b67ffffffffffffffff8111156122b9576122b8611758565b5b6122c38254611e7d565b6122ce828285611fcd565b6000601f8311600181146122fd57600084156122eb578287015490505b6122f5858261203e565b865550612368565b601f19841661230b87612274565b965061231686611eae565b60005b8281101561233e57848901548255600182019150600185019450602081019050612319565b8683101561235b5784890154612357601f891682612020565b8355505b6001600288020188555050505b5050505050505b565b600081519050919050565b600081905092915050565b600061239282612371565b61239c818561237c565b93506123ac818560208601611b6a565b80840191505092915050565b60006123c48285612387565b91506123d082846121e2565b91508190509392505050565b6000815490506123eb81611e7d565b9050919050565b8181036124005750506124d8565b612409826123dc565b67ffffffffffffffff81111561242257612421611758565b5b61242c8254611e7d565b612437828285611fcd565b6000601f8311600181146124665760008415612454578287015490505b61245e858261203e565b8655506124d1565b601f19841661247487611eae565b965061247f86611eae565b60005b828110156124a757848901548255600182019150600185019450602081019050612482565b868310156124c457848901546124c0601f891682612020565b8355505b6001600288020188555050505b5050505050505b56fea26469706673582212204c9d9b7dec1753b7c02d1b36c9ea6318cc39ccc7e31145a3d254996c5e84502764736f6c63430008110033",
  "immutableReferences": {},
  "source": "// SPDX-License-Identifier: MIT\npragma solidity ^0.8.3;\n\ncontract CloudAudit {\n    struct FileStruct {\n        uint file_id_global; //public auditing purpose\n        /* mapping(uint => uint[]) version_to_chunk_count; */\n        mapping(uint => string[]) mapped_file_blocks;\n        uint version_count; //\n        bool reality;\n    }\n\n    mapping (address => FileStruct) public files_by_owner;\n    mapping (address => bytes32[]) public file_hashes_by_owner;\n\n    // Check if the user exits\n    function userExists(address userAddress) public view returns(bool) {\n        return files_by_owner[userAddress].reality;\n        /* if(files_by_owner[userAddress].reality){\n            return true;\n        }\n        else{\n            return false;\n        } */\n    }\n\n    // Allocate space for the user at the first time\n    function initCloudForUser() public returns(bool success) {\n        address userAddress = msg.sender;\n        if(userExists(userAddress)) revert();\n        files_by_owner[userAddress].version_count = 0;\n        files_by_owner[userAddress].reality = true;\n        return true;\n    }\n\n    // Store an array of file blocks for an user (first time)\n    function storeFileBlocks(string[] memory _file_blocks) public returns(bool){\n        address userAddress = msg.sender;\n        if(!userExists(userAddress)) revert();\n\n        uint temp_version = files_by_owner[userAddress].version_count;\n\n\n        files_by_owner[userAddress].mapped_file_blocks[temp_version] = _file_blocks;\n\n        bytes32 file_hash = getFileHash(_file_blocks);\n        file_hashes_by_owner[userAddress].push(file_hash);\n\n        temp_version += 1;\n        files_by_owner[userAddress].version_count = temp_version;\n        return true;\n    }\n\n\n    // Store an array of file blocks for an user (first time)\n    function storeFileBlocksRenew(string[] memory _file_blocks, uint _version_no) public returns(bool){\n        address userAddress = msg.sender;\n        if(!userExists(userAddress)) revert();\n\n        /* uint temp_version = files_by_owner[userAddress].version_count; */\n\n        for (uint256 i = 0; i < _file_blocks.length; i++) {\n            files_by_owner[userAddress].mapped_file_blocks[_version_no].push(_file_blocks[i]);\n            /* return true; */\n        }\n\n        /* files_by_owner[userAddress].mapped_file_blocks[_version_no].push(_file_blocks); */\n\n        /* bytes32 file_hash = getFileHash(_file_blocks); */\n        /* file_hashes_by_owner[userAddress].push(file_hash); */\n\n        /* temp_version += 1; */\n        /* files_by_owner[userAddress].version_count = temp_version; */\n        return true;\n    }\n\n    // Retrive a file by version number\n    function getFileVersionForOwner(uint _version_no) public view returns (string[] memory){\n        address userAddress = msg.sender;\n        if(!userExists(userAddress)) revert();\n\n        if(_version_no >= files_by_owner[userAddress].version_count) revert();\n        return files_by_owner[userAddress].mapped_file_blocks[_version_no];\n    }\n\n    function getFileVersionForOwnerRenew(address user_address, uint _version_no) public view returns (string[] memory){\n        address userAddress = user_address;//msg.sender;\n        /* if(!userExists(userAddress)) revert(); */\n\n        /* if(_version_no >= files_by_owner[userAddress].version_count) revert(); */\n        return files_by_owner[userAddress].mapped_file_blocks[_version_no];\n    }\n\n\n    // Update a file block and create a new version\n    function updateBlockByIdx(uint _block_idx, string memory new_block) public returns (bool){\n        address userAddress = msg.sender;\n        if(!userExists(userAddress)) revert();\n\n        uint last_version_no = files_by_owner[userAddress].version_count - 1;\n        if(last_version_no >= files_by_owner[userAddress].version_count) revert();\n        if(files_by_owner[userAddress].mapped_file_blocks[last_version_no].length <= _block_idx) revert();\n\n        files_by_owner[userAddress].mapped_file_blocks[last_version_no+1] = files_by_owner[userAddress].mapped_file_blocks[last_version_no];\n        files_by_owner[userAddress].mapped_file_blocks[last_version_no+1][_block_idx] = new_block;\n\n        bytes32 file_hash = getFileHash(files_by_owner[userAddress].mapped_file_blocks[last_version_no+1]);\n        file_hashes_by_owner[userAddress].push(file_hash);\n\n        files_by_owner[userAddress].version_count += 1;\n\n        return true;\n    }\n\n\n    function updateBlockByIdxRenew(uint _block_idx, string memory new_block, uint _version_no) public returns (bool){\n        address userAddress = msg.sender;\n        if(!userExists(userAddress)) revert();\n\n        uint last_version_no = _version_no; //files_by_owner[userAddress].version_count - 1;\n        /* if(last_version_no >= files_by_owner[userAddress].version_count) revert(); */\n        if(files_by_owner[userAddress].mapped_file_blocks[last_version_no].length <= _block_idx) revert();\n\n        bool flag;\n        //Out of Gas\n        for (uint256 i = 0; i < files_by_owner[userAddress].mapped_file_blocks[last_version_no].length; i++) {\n            flag = copyBlockToNextVersion(userAddress, last_version_no, i);\n        }\n        /* files_by_owner[userAddress].mapped_file_blocks[last_version_no+1] = files_by_owner[userAddress].mapped_file_blocks[last_version_no]; */\n\n\n\n        files_by_owner[userAddress].mapped_file_blocks[last_version_no+1][_block_idx] = new_block;\n\n        /* bytes32 file_hash = getFileHash(files_by_owner[userAddress].mapped_file_blocks[last_version_no+1]);\n        file_hashes_by_owner[userAddress].push(file_hash);\n\n        files_by_owner[userAddress].version_count += 1; */\n\n        return true;\n    }\n\n    function copyBlockToNextVersion(address user_address, uint _cur_version_no, uint _block_idx) internal returns (bool){\n        files_by_owner[user_address].mapped_file_blocks[_cur_version_no+1][_block_idx] = files_by_owner[user_address].mapped_file_blocks[_cur_version_no][_block_idx];\n        return true;\n    }\n\n\n    // Calculate hash for all concatenated blocks in a file\n    function getFileHash(string[] memory _file_blocks) public pure returns (bytes32) {\n        string memory file_string = concatBlocks(_file_blocks);\n        bytes32 file_hash = keccak256(abi.encodePacked(file_string));\n        // file_hashes_by_owner[msg.sender].push(file_hash);\n        // idx += 1;\n        return file_hash;\n\n    }\n\n    function returnFileHash(uint _version_no) public view returns (bytes32) {\n        address userAddress = msg.sender;\n        bytes32 file_hash = file_hashes_by_owner[userAddress][_version_no];\n        return file_hash;\n    }\n\n    function generateFileHash(uint _version_no) public returns (bool){\n        address userAddress = msg.sender;\n        bytes32 file_hash = getFileHash(files_by_owner[userAddress].mapped_file_blocks[_version_no]);\n        file_hashes_by_owner[userAddress][_version_no] = file_hash;\n        return true;\n    }\n\n\n    /* function generateFileHash(string[] memory _file_blocks) public pure returns (bytes32) {\n        string memory file_string = concatBlocks(_file_blocks);\n        bytes32 file_hash = keccak256(abi.encodePacked(file_string));\n        // file_hashes_by_owner[msg.sender].push(file_hash);\n        // idx += 1;\n        return file_hash;\n    } */\n\n    // Concate elements of a string array\n    function concatBlocks(string[] memory _file_blocks) internal pure returns (string memory) {\n        bytes memory output;\n        for (uint256 i = 0; i < _file_blocks.length; i++) {\n            output = abi.encodePacked(output, _file_blocks[i]);\n        }\n        return string(output);\n    }\n\n    // function hash(string memory _string) public pure returns(bytes32) {\n    //     return keccak256(abi.encodePacked(_string));\n    // }\n\n    // What if only the hash is saved???\n    function compareFileHash(address _file_owner, uint _version_no) public view returns (bool) {\n        // address userAddress = msg.sender;\n        // if(!userExists(userAddress)) revert();\n        address userAddress = _file_owner;\n        if(_version_no > files_by_owner[userAddress].version_count) revert();\n\n        bytes32 file_hash = getFileHash(files_by_owner[userAddress].mapped_file_blocks[_version_no]);\n        if(file_hashes_by_owner[userAddress][_version_no] == file_hash) {\n            return true;\n        }\n        else {\n            return false;\n        }\n    }\n}\n",
  "sourcePath": "/Users/saklain/Desktop/blockchain-off-chain/contracts/CloudAudit.sol",
  "compiler": {
    "name": "solc",
    "version": "0.8.17+commit.8df45f5f.Emscripten.clang"
  },
  "schemaVersion": "3.4.10",
  "updatedAt": "2022-11-13T21:50:27.905Z",
  "networkType": "ethereum",
  "devdoc": {
    "kind": "dev",
    "methods": {},
    "version": 1
  },
  "userdoc": {
    "kind": "user",
    "methods": {},
    "version": 1
  }
}