{
  "contractName": "FileTracker",
  "abi": [
    {
      "inputs": [
        {
          "internalType": "address",
          "name": "",
          "type": "address"
        }
      ],
      "name": "files_by_owner",
      "outputs": [
        {
          "internalType": "uint256",
          "name": "version_count",
          "type": "uint256"
        },
        {
          "internalType": "bool",
          "name": "reality",
          "type": "bool"
        }
      ],
      "stateMutability": "view",
      "type": "function",
      "constant": true
    },
    {
      "inputs": [
        {
          "internalType": "string",
          "name": "_file_hash",
          "type": "string"
        }
      ],
      "name": "storeFileHash",
      "outputs": [],
      "stateMutability": "nonpayable",
      "type": "function"
    },
    {
      "inputs": [
        {
          "internalType": "string",
          "name": "_ipfs_digest",
          "type": "string"
        }
      ],
      "name": "storeFileIPFSDigest",
      "outputs": [],
      "stateMutability": "nonpayable",
      "type": "function"
    },
    {
      "inputs": [
        {
          "internalType": "uint256",
          "name": "_version_no",
          "type": "uint256"
        }
      ],
      "name": "getFileHash",
      "outputs": [
        {
          "internalType": "string",
          "name": "",
          "type": "string"
        }
      ],
      "stateMutability": "view",
      "type": "function",
      "constant": true
    },
    {
      "inputs": [
        {
          "internalType": "uint256",
          "name": "_version_no",
          "type": "uint256"
        }
      ],
      "name": "getIPFSDigest",
      "outputs": [
        {
          "internalType": "string",
          "name": "",
          "type": "string"
        }
      ],
      "stateMutability": "view",
      "type": "function",
      "constant": true
    },
    {
      "inputs": [],
      "name": "getCurrentVersion",
      "outputs": [
        {
          "internalType": "uint256",
          "name": "",
          "type": "uint256"
        }
      ],
      "stateMutability": "view",
      "type": "function",
      "constant": true
    }
  ],
  "bytecode": "0x608060405234801561001057600080fd5b50610e76806100206000396000f3fe608060405234801561001057600080fd5b50600436106100625760003560e01c8063a8176b3514610067578063b3883f6414610098578063d46f0c83146100c8578063eb131135146100e4578063fabec44a14610114578063fb6cbd0614610132575b600080fd5b610081600480360381019061007c919061079d565b61014e565b60405161008f9291906107fe565b60405180910390f35b6100b260048036038101906100ad9190610853565b61017f565b6040516100bf9190610910565b60405180910390f35b6100e260048036038101906100dd9190610a67565b6102ce565b005b6100fe60048036038101906100f99190610853565b6103d0565b60405161010b9190610910565b60405180910390f35b61011c61051f565b6040516101299190610ab0565b60405180910390f35b61014c60048036038101906101479190610a67565b61057f565b005b60006020528060005260406000206000915090508060020154908060030160009054906101000a900460ff16905082565b60606000339050600015156000808373ffffffffffffffffffffffffffffffffffffffff1673ffffffffffffffffffffffffffffffffffffffff16815260200190815260200160002060030160009054906101000a900460ff161515036101e557600080fd5b60008060008373ffffffffffffffffffffffffffffffffffffffff1673ffffffffffffffffffffffffffffffffffffffff1681526020019081526020016000206001016000858152602001908152602001600020805461024490610afa565b80601f016020809104026020016040519081016040528092919081815260200182805461027090610afa565b80156102bd5780601f10610292576101008083540402835291602001916102bd565b820191906000526020600020905b8154815290600101906020018083116102a057829003601f168201915b505050505090508092505050919050565b600033905060008060008373ffffffffffffffffffffffffffffffffffffffff1673ffffffffffffffffffffffffffffffffffffffff168152602001908152602001600020600201549050826000808473ffffffffffffffffffffffffffffffffffffffff1673ffffffffffffffffffffffffffffffffffffffff168152602001908152602001600020600101600083815260200190815260200160002090816103789190610cd7565b506001816103869190610dd8565b6000808473ffffffffffffffffffffffffffffffffffffffff1673ffffffffffffffffffffffffffffffffffffffff16815260200190815260200160002060020181905550505050565b60606000339050600015156000808373ffffffffffffffffffffffffffffffffffffffff1673ffffffffffffffffffffffffffffffffffffffff16815260200190815260200160002060030160009054906101000a900460ff1615150361043657600080fd5b60008060008373ffffffffffffffffffffffffffffffffffffffff1673ffffffffffffffffffffffffffffffffffffffff1681526020019081526020016000206000016000858152602001908152602001600020805461049590610afa565b80601f01602080910402602001604051908101604052809291908181526020018280546104c190610afa565b801561050e5780601f106104e35761010080835404028352916020019161050e565b820191906000526020600020905b8154815290600101906020018083116104f157829003601f168201915b505050505090508092505050919050565b60008033905060008060008373ffffffffffffffffffffffffffffffffffffffff1673ffffffffffffffffffffffffffffffffffffffff1681526020019081526020016000206002015490506001816105789190610e0c565b9250505090565b6000339050600015156000808373ffffffffffffffffffffffffffffffffffffffff1673ffffffffffffffffffffffffffffffffffffffff16815260200190815260200160002060030160009054906101000a900460ff161515036106805760008060008373ffffffffffffffffffffffffffffffffffffffff1673ffffffffffffffffffffffffffffffffffffffff1681526020019081526020016000206002018190555060016000808373ffffffffffffffffffffffffffffffffffffffff1673ffffffffffffffffffffffffffffffffffffffff16815260200190815260200160002060030160006101000a81548160ff0219169083151502179055505b60008060008373ffffffffffffffffffffffffffffffffffffffff1673ffffffffffffffffffffffffffffffffffffffff168152602001908152602001600020600201549050826000808473ffffffffffffffffffffffffffffffffffffffff1673ffffffffffffffffffffffffffffffffffffffff168152602001908152602001600020600001600083815260200190815260200160002090816107259190610cd7565b50505050565b6000604051905090565b600080fd5b600080fd5b600073ffffffffffffffffffffffffffffffffffffffff82169050919050565b600061076a8261073f565b9050919050565b61077a8161075f565b811461078557600080fd5b50565b60008135905061079781610771565b92915050565b6000602082840312156107b3576107b2610735565b5b60006107c184828501610788565b91505092915050565b6000819050919050565b6107dd816107ca565b82525050565b60008115159050919050565b6107f8816107e3565b82525050565b600060408201905061081360008301856107d4565b61082060208301846107ef565b9392505050565b610830816107ca565b811461083b57600080fd5b50565b60008135905061084d81610827565b92915050565b60006020828403121561086957610868610735565b5b60006108778482850161083e565b91505092915050565b600081519050919050565b600082825260208201905092915050565b60005b838110156108ba57808201518184015260208101905061089f565b60008484015250505050565b6000601f19601f8301169050919050565b60006108e282610880565b6108ec818561088b565b93506108fc81856020860161089c565b610905816108c6565b840191505092915050565b6000602082019050818103600083015261092a81846108d7565b905092915050565b600080fd5b600080fd5b7f4e487b7100000000000000000000000000000000000000000000000000000000600052604160045260246000fd5b610974826108c6565b810181811067ffffffffffffffff821117156109935761099261093c565b5b80604052505050565b60006109a661072b565b90506109b2828261096b565b919050565b600067ffffffffffffffff8211156109d2576109d161093c565b5b6109db826108c6565b9050602081019050919050565b82818337600083830152505050565b6000610a0a610a05846109b7565b61099c565b905082815260208101848484011115610a2657610a25610937565b5b610a318482856109e8565b509392505050565b600082601f830112610a4e57610a4d610932565b5b8135610a5e8482602086016109f7565b91505092915050565b600060208284031215610a7d57610a7c610735565b5b600082013567ffffffffffffffff811115610a9b57610a9a61073a565b5b610aa784828501610a39565b91505092915050565b6000602082019050610ac560008301846107d4565b92915050565b7f4e487b7100000000000000000000000000000000000000000000000000000000600052602260045260246000fd5b60006002820490506001821680610b1257607f821691505b602082108103610b2557610b24610acb565b5b50919050565b60008190508160005260206000209050919050565b60006020601f8301049050919050565b600082821b905092915050565b600060088302610b8d7fffffffffffffffffffffffffffffffffffffffffffffffffffffffffffffffff82610b50565b610b978683610b50565b95508019841693508086168417925050509392505050565b6000819050919050565b6000610bd4610bcf610bca846107ca565b610baf565b6107ca565b9050919050565b6000819050919050565b610bee83610bb9565b610c02610bfa82610bdb565b848454610b5d565b825550505050565b600090565b610c17610c0a565b610c22818484610be5565b505050565b5b81811015610c4657610c3b600082610c0f565b600181019050610c28565b5050565b601f821115610c8b57610c5c81610b2b565b610c6584610b40565b81016020851015610c74578190505b610c88610c8085610b40565b830182610c27565b50505b505050565b600082821c905092915050565b6000610cae60001984600802610c90565b1980831691505092915050565b6000610cc78383610c9d565b9150826002028217905092915050565b610ce082610880565b67ffffffffffffffff811115610cf957610cf861093c565b5b610d038254610afa565b610d0e828285610c4a565b600060209050601f831160018114610d415760008415610d2f578287015190505b610d398582610cbb565b865550610da1565b601f198416610d4f86610b2b565b60005b82811015610d7757848901518255600182019150602085019450602081019050610d52565b86831015610d945784890151610d90601f891682610c9d565b8355505b6001600288020188555050505b505050505050565b7f4e487b7100000000000000000000000000000000000000000000000000000000600052601160045260246000fd5b6000610de3826107ca565b9150610dee836107ca565b9250828201905080821115610e0657610e05610da9565b5b92915050565b6000610e17826107ca565b9150610e22836107ca565b9250828203905081811115610e3a57610e39610da9565b5b9291505056fea26469706673582212209dac37d5b065ad86483b6265a91a6da66c1833b314498a7e95b9735bc0c2475464736f6c63430008110033",
  "immutableReferences": {},
  "source": "\n// SPDX-License-Identifier: GPL-3.0\npragma solidity >=0.7.0 <0.9.0;\n\ncontract FileTracker {\n      struct FileStruct {\n        mapping(uint => string) file_hashes_by_version;\n        mapping(uint => string) ipfs_digest_by_file_version;\n        uint version_count;\n        bool reality;\n    }\n\n      mapping (address => FileStruct) public files_by_owner;\n\n    //   mapping (address => string[]) public file_hashes_array;\n\n\n\n      function storeFileHash(string memory _file_hash) public {\n        address user_address = msg.sender;\n\n        if (files_by_owner[user_address].reality == false){\n            files_by_owner[user_address].version_count = 0;\n            files_by_owner[user_address].reality = true;\n        }\n\n        uint current_version = files_by_owner[user_address].version_count;\n        files_by_owner[user_address].file_hashes_by_version[current_version] = _file_hash;\n        /* files_by_owner[user_address].version_count = current_version+1; */\n        /* return current_version; */\n\n    }\n\n    function storeFileIPFSDigest(string memory _ipfs_digest) public {\n        address user_address = msg.sender;\n        uint _version_no = files_by_owner[user_address].version_count;\n        files_by_owner[user_address].ipfs_digest_by_file_version[_version_no] = _ipfs_digest;\n        files_by_owner[user_address].version_count = _version_no + 1;\n    }\n\n    function getFileHash(uint _version_no) public view returns (string memory) {\n       address user_address = msg.sender;\n       if(files_by_owner[user_address].reality == false) revert();\n       string memory _file_hash = files_by_owner[user_address].file_hashes_by_version[_version_no];\n       return _file_hash;\n    }\n\n    function getIPFSDigest(uint _version_no) public view returns (string memory) {\n        address user_address = msg.sender;\n        if(files_by_owner[user_address].reality == false) revert();\n        string memory _ipfs_digest = files_by_owner[user_address].ipfs_digest_by_file_version[_version_no];\n        return _ipfs_digest;\n    }\n\n    function getCurrentVersion() public view returns (uint){\n      address user_address = msg.sender;\n      uint version_count = files_by_owner[user_address].version_count;\n      return version_count-1;\n    }\n}\n",
  "sourcePath": "/Users/saklain/Desktop/blockchain-off-chain/contracts/FileTracker.sol",
  "compiler": {
    "name": "solc",
    "version": "0.8.17+commit.8df45f5f.Emscripten.clang"
  },
  "schemaVersion": "3.4.10",
  "updatedAt": "2022-11-13T21:50:28.245Z",
  "networkType": "ethereum",
  "devdoc": {
    "kind": "dev",
    "methods": {},
    "version": 1
  },
  "userdoc": {
    "kind": "user",
    "methods": {},
    "version": 1
  }
}